{
  "contractName": "ConvertLib",
  "abi": [
    {
      "inputs": [
        {
          "internalType": "uint256",
          "name": "amount",
          "type": "uint256"
        },
        {
          "internalType": "uint256",
          "name": "conversionRate",
          "type": "uint256"
        }
      ],
      "name": "convert",
      "outputs": [
        {
          "internalType": "uint256",
          "name": "convertedAmount",
          "type": "uint256"
        }
      ],
      "stateMutability": "pure",
      "type": "function"
    }
  ],
  "bytecode": "0x60e0610034600b8282823980515f1a60731461002857634e487b7160e01b5f525f60045260245ffd5b305f52607381538281f3fe73000000000000000000000000000000000000000030146080604052600436106032575f3560e01c806396e4ee3d146036575b5f80fd5b604560413660046069565b6057565b60405190815260200160405180910390f35b5f606082846088565b90505b92915050565b5f80604083850312156079575f80fd5b50508035926020909101359150565b8082028115828204841417606357634e487b7160e01b5f52601160045260245ffdfea2646970667358221220c14f7f8c6fcc3d07ce65a3013b8daa43823adaaf9ac1fe1200ce2b955ded6b1964736f6c63430008150033",
  "immutableReferences": {},
  "source": "pragma solidity ^0.8.21;\nlibrary ConvertLib{\n\tfunction convert(uint amount,uint conversionRate) public pure returns (uint convertedAmount)\n\t{\n\t\treturn amount * conversionRate;\n\t}\n}\n",
  "sourcePath": "/home/srdevanarayan/Desktop/Final Project/3backend/contracts/ConvertLib.sol",
  "compiler": {
    "name": "solc",
    "version": "0.8.21+commit.d9974bed.Emscripten.clang"
  },
  "schemaVersion": "3.4.16",
  "updatedAt": "2024-03-19T07:43:35.219Z",
  "devdoc": {
    "kind": "dev",
    "methods": {},
    "version": 1
  },
  "userdoc": {
    "kind": "user",
    "methods": {},
    "version": 1
  }
}