{
  "contractName": "MasterList",
  "abi": [
    {
      "inputs": [
        {
          "internalType": "string",
          "name": "_username",
          "type": "string"
        }
      ],
      "name": "usernameExists",
      "outputs": [
        {
          "internalType": "bool",
          "name": "",
          "type": "bool"
        }
      ],
      "stateMutability": "view",
      "type": "function"
    },
    {
      "inputs": [
        {
          "internalType": "string",
          "name": "_username",
          "type": "string"
        },
        {
          "internalType": "string",
          "name": "_region",
          "type": "string"
        }
      ],
      "name": "addUsernameRegion",
      "outputs": [],
      "stateMutability": "nonpayable",
      "type": "function"
    },
    {
      "inputs": [
        {
          "internalType": "string",
          "name": "_username",
          "type": "string"
        }
      ],
      "name": "getRegion",
      "outputs": [
        {
          "internalType": "string",
          "name": "",
          "type": "string"
        }
      ],
      "stateMutability": "view",
      "type": "function"
    }
  ],
  "bytecode": "0x608060405234801561001057600080fd5b50610630806100206000396000f3fe608060405234801561001057600080fd5b50600436106100415760003560e01c8063d2aeb61c14610046578063f309e3f91461006f578063fe6be2be14610092575b600080fd5b61005961005436600461039e565b6100a7565b60405161006691906103ff565b60405180910390f35b61008261007d36600461039e565b6101b1565b6040519015158152602001610066565b6100a56100a0366004610432565b6101e7565b005b60606100b2826101b1565b6101035760405162461bcd60e51b815260206004820152601760248201527f557365726e616d6520646f6573206e6f7420657869737400000000000000000060448201526064015b60405180910390fd5b6000826040516101139190610496565b9081526020016040518091039020805461012c906104b2565b80601f0160208091040260200160405190810160405280929190818152602001828054610158906104b2565b80156101a55780601f1061017a576101008083540402835291602001916101a5565b820191906000526020600020905b81548152906001019060200180831161018857829003601f168201915b50505050509050919050565b6000806000836040516101c49190610496565b908152602001604051809103902080546101dd906104b2565b9050119050919050565b600082511161022f5760405162461bcd60e51b8152602060048201526014602482015273155cd95c9b985b59481a5cc81c995c5d5a5c995960621b60448201526064016100fa565b60008151116102755760405162461bcd60e51b8152602060048201526012602482015271149959da5bdb881a5cc81c995c5d5a5c995960721b60448201526064016100fa565b61027e826101b1565b156102cb5760405162461bcd60e51b815260206004820152601760248201527f557365726e616d6520616c72656164792065786973747300000000000000000060448201526064016100fa565b806000836040516102dc9190610496565b908152602001604051809103902090816102f6919061053a565b505050565b634e487b7160e01b600052604160045260246000fd5b600082601f83011261032257600080fd5b813567ffffffffffffffff8082111561033d5761033d6102fb565b604051601f8301601f19908116603f01168101908282118183101715610365576103656102fb565b8160405283815286602085880101111561037e57600080fd5b836020870160208301376000602085830101528094505050505092915050565b6000602082840312156103b057600080fd5b813567ffffffffffffffff8111156103c757600080fd5b6103d384828501610311565b949350505050565b60005b838110156103f65781810151838201526020016103de565b50506000910152565b602081526000825180602084015261041e8160408501602087016103db565b601f01601f19169190910160400192915050565b6000806040838503121561044557600080fd5b823567ffffffffffffffff8082111561045d57600080fd5b61046986838701610311565b9350602085013591508082111561047f57600080fd5b5061048c85828601610311565b9150509250929050565b600082516104a88184602087016103db565b9190910192915050565b600181811c908216806104c657607f821691505b6020821081036104e657634e487b7160e01b600052602260045260246000fd5b50919050565b601f8211156102f657600081815260208120601f850160051c810160208610156105135750805b601f850160051c820191505b818110156105325782815560010161051f565b505050505050565b815167ffffffffffffffff811115610554576105546102fb565b6105688161056284546104b2565b846104ec565b602080601f83116001811461059d57600084156105855750858301515b600019600386901b1c1916600185901b178555610532565b600085815260208120601f198616915b828110156105cc578886015182559484019460019091019084016105ad565b50858210156105ea5787850151600019600388901b60f8161c191681555b5050505050600190811b0190555056fea2646970667358221220b52e7fdef712daa3ec99e139707c1f352d7a8fa4ab0eda5bcb9d2efc5ac10f3f64736f6c63430008110033",
  "immutableReferences": {},
  "source": "//SPDX-License-Identifier: MIT\npragma solidity 0.8.17;\n\ncontract MasterList {\n    mapping(string => string) private userToRegion; // Maps username to region\n\n    // Function to check if a username exists\n    function usernameExists(string memory _username) public view returns (bool) {\n        return bytes(userToRegion[_username]).length > 0;\n    }\n\n    // Function to add a username-region pair\n    function addUsernameRegion(string memory _username, string memory _region) public {\n        require(bytes(_username).length > 0, \"Username is required\"); // Check if username is provided\n        require(bytes(_region).length > 0, \"Region is required\"); // Check if region is provided\n        require(!usernameExists(_username), \"Username already exists\"); // Ensure username doesn't already exist\n        userToRegion[_username] = _region;\n    }\n\n    // Function to get the region associated with a username\n    function getRegion(string memory _username) public view returns (string memory) {\n        require(usernameExists(_username), \"Username does not exist\");\n        return userToRegion[_username];\n    }\n}\n",
  "sourcePath": "/home/srdevanarayan/Desktop/Final Project/Final_Backend/contracts/MasterList.sol",
  "compiler": {
    "name": "solc",
    "version": "0.8.17+commit.8df45f5f.Emscripten.clang"
  },
  "schemaVersion": "3.4.16",
  "updatedAt": "2024-04-22T08:27:36.046Z",
  "devdoc": {
    "kind": "dev",
    "methods": {},
    "version": 1
  },
  "userdoc": {
    "kind": "user",
    "methods": {},
    "version": 1
  }
}