{
  "contractName": "Registration",
  "abi": [
    {
      "anonymous": false,
      "inputs": [
        {
          "indexed": true,
          "internalType": "address",
          "name": "user",
          "type": "address"
        },
        {
          "indexed": false,
          "internalType": "string",
          "name": "newStatus",
          "type": "string"
        }
      ],
      "name": "RegistrationStatusChanged",
      "type": "event"
    },
    {
      "inputs": [
        {
          "internalType": "string",
          "name": "_name",
          "type": "string"
        },
        {
          "internalType": "string",
          "name": "_dob",
          "type": "string"
        },
        {
          "internalType": "string",
          "name": "_place",
          "type": "string"
        },
        {
          "internalType": "string",
          "name": "_sex",
          "type": "string"
        },
        {
          "internalType": "uint256",
          "name": "_aadhaarNumber",
          "type": "uint256"
        }
      ],
      "name": "register",
      "outputs": [],
      "stateMutability": "nonpayable",
      "type": "function"
    },
    {
      "inputs": [],
      "name": "getUnverifiedAddresses",
      "outputs": [
        {
          "internalType": "address[]",
          "name": "",
          "type": "address[]"
        }
      ],
      "stateMutability": "view",
      "type": "function"
    },
    {
      "inputs": [
        {
          "internalType": "address",
          "name": "_user",
          "type": "address"
        }
      ],
      "name": "verifyRegistration",
      "outputs": [],
      "stateMutability": "nonpayable",
      "type": "function"
    },
    {
      "inputs": [
        {
          "internalType": "address",
          "name": "_user",
          "type": "address"
        }
      ],
      "name": "rejectRegistration",
      "outputs": [],
      "stateMutability": "nonpayable",
      "type": "function"
    }
  ],
  "bytecode": "0x608060405234801561001057600080fd5b50610fe1806100206000396000f3fe608060405234801561001057600080fd5b506004361061004c5760003560e01c8063382654241461005157806395d6f4fb14610066578063bb77a39614610084578063e8d78aea14610097575b600080fd5b61006461005f366004610ab5565b6100aa565b005b61006e610312565b60405161007b9190610ad9565b60405180910390f35b610064610092366004610ab5565b6105bb565b6100646100a5366004610bc9565b610811565b60405163732a2ccf60e01b81526000600482018190526001600160a01b03831660248301529073__IterableMapping_______________________9063732a2ccf90604401602060405180830381865af415801561010c573d6000803e3d6000fd5b505050506040513d601f19601f820116820180604052508101906101309190610c7e565b805461013b90610c97565b9050116101635760405162461bcd60e51b815260040161015a90610cd1565b60405180910390fd5b60405163732a2ccf60e01b8152600060048201526001600160a01b038216602482015273__IterableMapping_______________________90632d99b8b0906008908490849063732a2ccf90604401602060405180830381865af41580156101cf573d6000803e3d6000fd5b505050506040513d601f19601f820116820180604052508101906101f39190610c7e565b6040518463ffffffff1660e01b815260040161021193929190610dd2565b60006040518083038186803b15801561022957600080fd5b505af415801561023d573d6000803e3d6000fd5b505060405163131836e760e21b8152600060048201526001600160a01b038416602482015273__IterableMapping_______________________9250634c60db9c915060440160006040518083038186803b15801561029b57600080fd5b505af41580156102af573d6000803e3d6000fd5b50505050806001600160a01b03167f78a0f88287f50275d44768afb49b486d435256a9c41f991491018d5f8a25c04e604051610307906020808252600890820152671c995a9958dd195960c21b604082015260600190565b60405180910390a250565b604051636f59ec4b60e11b815260006004820181905260609173__IterableMapping_______________________9063deb3d89690602401602060405180830381865af4158015610367573d6000803e3d6000fd5b505050506040513d601f19601f8201168201806040525081019061038b9190610c7e565b67ffffffffffffffff8111156103a3576103a3610b26565b6040519080825280602002602001820160405280156103cc578160200160208202803683370190505b5090506000805b604051636f59ec4b60e11b81526000600482015273__IterableMapping_______________________9063deb3d89690602401602060405180830381865af4158015610423573d6000803e3d6000fd5b505050506040513d601f19601f820116820180604052508101906104479190610c7e565b8110156105b3576040516368d54f3f60e11b8152600060048201819052602482018390529073__IterableMapping_______________________9063d1aa9e7e90604401602060405180830381865af41580156104a8573d6000803e3d6000fd5b505050506040513d601f19601f820116820180604052508101906104cc9190610e68565b60405163732a2ccf60e01b81526000600482018190526001600160a01b038316602483015291925073__IterableMapping_______________________9063732a2ccf90604401602060405180830381865af4158015610530573d6000803e3d6000fd5b505050506040513d601f19601f820116820180604052508101906105549190610c7e565b805461055f90610c97565b905011156105a0578084848151811061057a5761057a610e85565b6001600160a01b03909216602092830291909101909101528261059c81610e9b565b9350505b50806105ab81610e9b565b9150506103d3565b509092915050565b60405163732a2ccf60e01b81526000600482018190526001600160a01b03831660248301529073__IterableMapping_______________________9063732a2ccf90604401602060405180830381865af415801561061d573d6000803e3d6000fd5b505050506040513d601f19601f820116820180604052508101906106419190610c7e565b805461064c90610c97565b90501161066b5760405162461bcd60e51b815260040161015a90610cd1565b60405163732a2ccf60e01b815260006004808301919091526001600160a01b038316602483015273__IterableMapping_______________________91632d99b8b091908490849063732a2ccf90604401602060405180830381865af41580156106d9573d6000803e3d6000fd5b505050506040513d601f19601f820116820180604052508101906106fd9190610c7e565b6040518463ffffffff1660e01b815260040161071b93929190610dd2565b60006040518083038186803b15801561073357600080fd5b505af4158015610747573d6000803e3d6000fd5b505060405163131836e760e21b8152600060048201526001600160a01b038416602482015273__IterableMapping_______________________9250634c60db9c915060440160006040518083038186803b1580156107a557600080fd5b505af41580156107b9573d6000803e3d6000fd5b50505050806001600160a01b03167f78a0f88287f50275d44768afb49b486d435256a9c41f991491018d5f8a25c04e604051610307906020808252600890820152671d995c9a599a595960c21b604082015260600190565b60405163732a2ccf60e01b81526000600482015233602482015273__IterableMapping_______________________9063732a2ccf90604401602060405180830381865af4158015610867573d6000803e3d6000fd5b505050506040513d601f19601f8201168201806040525081019061088b9190610c7e565b805461089690610c97565b1590508015610928575060405163732a2ccf60e01b815260048082015233602482015273__IterableMapping_______________________9063732a2ccf90604401602060405180830381865af41580156108f5573d6000803e3d6000fd5b505050506040513d601f19601f820116820180604052508101906109199190610c7e565b805461092490610c97565b1590505b80156109b8575060405163732a2ccf60e01b81526008600482015233602482015273__IterableMapping_______________________9063732a2ccf90604401602060405180830381865af4158015610985573d6000803e3d6000fd5b505050506040513d601f19601f820116820180604052508101906109a99190610c7e565b80546109b490610c97565b1590505b610a045760405162461bcd60e51b815260206004820152601b60248201527f526567697374726174696f6e20616c7265616479206578697374730000000000604482015260640161015a565b6040805160a08101825286815260208101869052808201859052606081018490526080810183905290516302d99b8b60e41b815273__IterableMapping_______________________91632d99b8b091610a6691600091339190600401610f08565b60006040518083038186803b158015610a7e57600080fd5b505af4158015610a92573d6000803e3d6000fd5b505050505050505050565b6001600160a01b0381168114610ab257600080fd5b50565b600060208284031215610ac757600080fd5b8135610ad281610a9d565b9392505050565b6020808252825182820181905260009190848201906040850190845b81811015610b1a5783516001600160a01b031683529284019291840191600101610af5565b50909695505050505050565b634e487b7160e01b600052604160045260246000fd5b600082601f830112610b4d57600080fd5b813567ffffffffffffffff80821115610b6857610b68610b26565b604051601f8301601f19908116603f01168101908282118183101715610b9057610b90610b26565b81604052838152866020858801011115610ba957600080fd5b836020870160208301376000602085830101528094505050505092915050565b600080600080600060a08688031215610be157600080fd5b853567ffffffffffffffff80821115610bf957600080fd5b610c0589838a01610b3c565b96506020880135915080821115610c1b57600080fd5b610c2789838a01610b3c565b95506040880135915080821115610c3d57600080fd5b610c4989838a01610b3c565b94506060880135915080821115610c5f57600080fd5b50610c6c88828901610b3c565b95989497509295608001359392505050565b600060208284031215610c9057600080fd5b5051919050565b600181811c90821680610cab57607f821691505b602082108103610ccb57634e487b7160e01b600052602260045260246000fd5b50919050565b60208082526038908201527f526567697374726174696f6e20646f6573206e6f74206578697374206f72206160408201527f6c72656164792076657269666965642f72656a65637465640000000000000000606082015260800190565b8054600090600181811c9080831680610d4857607f831692505b60208084108203610d6957634e487b7160e01b600052602260045260246000fd5b83885260208801828015610d845760018114610d9a57610dc5565b60ff198716825285151560051b82019750610dc5565b60008981526020902060005b87811015610dbf57815484820152908601908401610da6565b83019850505b5050505050505092915050565b8381526001600160a01b038316602082015260606040820181905260a0908201526000610e03610100830184610d2e565b605f1980848303016080850152610e1d8260018701610d2e565b9150808483030160a0850152610e368260028701610d2e565b9150808483030160c085015250610e508160038601610d2e565b9050600484015460e084015280915050949350505050565b600060208284031215610e7a57600080fd5b8151610ad281610a9d565b634e487b7160e01b600052603260045260246000fd5b600060018201610ebb57634e487b7160e01b600052601160045260246000fd5b5060010190565b6000815180845260005b81811015610ee857602081850181015186830182015201610ecc565b506000602082860101526020601f19601f83011685010191505092915050565b83815260018060a01b0383166020820152606060408201526000825160a06060840152610f39610100840182610ec2565b90506020840151605f1980858403016080860152610f578383610ec2565b925060408601519150808584030160a0860152610f748383610ec2565b925060608601519150808584030160c086015250610f928282610ec2565b915050608084015160e08401528091505094935050505056fea26469706673582212209407622e1d09bfb885edde0b2e919634fdac86cf76f338ef97a2c4f2b918bace64736f6c63430008110033",
  "immutableReferences": {},
  "source": "//SPDX-License-Identifier: MIT\npragma solidity 0.8.17;\n\nlibrary IterableMapping {\n    // Struct to hold registration details\n    struct RegistrationDetails {\n        string name;\n        string dob;\n        string place;\n        string sex;\n        uint256 aadhaarNumber;\n    }\n\n    // Iterable mapping from address to RegistrationDetails\n    struct Map {\n        address[] keys;\n        mapping(address => RegistrationDetails) values;\n        mapping(address => uint256) indexOf;\n        mapping(address => bool) inserted;\n    }\n\n    function get(Map storage map, address key) public view returns (RegistrationDetails storage) {\n        return map.values[key];\n    }\n\n    function getKeyAtIndex(Map storage map, uint256 index) public view returns (address) {\n        return map.keys[index];\n    }\n\n    function size(Map storage map) public view returns (uint256) {\n        return map.keys.length;\n    }\n\n    function set(Map storage map, address key, RegistrationDetails memory val) public {\n        if (map.inserted[key]) {\n            map.values[key] = val;\n        } else {\n            map.inserted[key] = true;\n            map.values[key] = val;\n            map.indexOf[key] = map.keys.length;\n            map.keys.push(key);\n        }\n    }\n\n    function remove(Map storage map, address key) public {\n        if (!map.inserted[key]) {\n            return;\n        }\n\n        delete map.inserted[key];\n        delete map.values[key];\n\n        uint256 index = map.indexOf[key];\n        address lastKey = map.keys[map.keys.length - 1];\n        map.indexOf[lastKey] = index;\n        delete map.indexOf[key];\n        map.keys[index] = lastKey;\n        map.keys.pop();\n    }\n}\n\ncontract Registration {\n    using IterableMapping for IterableMapping.Map;\n\n    // Iterable mappings for different registration statuses\n    IterableMapping.Map private unverifiedRegistrations;\n    IterableMapping.Map private verifiedRegistrations;\n    IterableMapping.Map private rejectedRegistrations;\n\n    // Event to log registration status changes\n    event RegistrationStatusChanged(address indexed user, string newStatus);\n\n    // Function to register a new user\n    function register(\n        string memory _name,\n        string memory _dob,\n        string memory _place,\n        string memory _sex,\n        uint256 _aadhaarNumber\n    ) public {\n        // Check if registration already exists\n        require(\n            bytes(unverifiedRegistrations.get(msg.sender).name).length == 0 &&\n                bytes(verifiedRegistrations.get(msg.sender).name).length == 0 &&\n                bytes(rejectedRegistrations.get(msg.sender).name).length == 0,\n            \"Registration already exists\"\n        );\n\n        // Add registration details to unverified registrations\n        unverifiedRegistrations.set(\n            msg.sender,\n            IterableMapping.RegistrationDetails(_name, _dob, _place, _sex, _aadhaarNumber)\n        );\n    }\n\n    // Function to get addresses of unverified registrations\n    function getUnverifiedAddresses() public view returns (address[] memory) {\n        address[] memory unverifiedAddresses = new address[](unverifiedRegistrations.size());\n        uint256 count = 0;\n        for (uint256 i = 0; i < unverifiedRegistrations.size(); i++) {\n            address user = unverifiedRegistrations.getKeyAtIndex(i);\n            if (bytes(unverifiedRegistrations.get(user).name).length > 0) {\n                unverifiedAddresses[count] = user;\n                count++;\n            }\n        }\n        return unverifiedAddresses;\n    }\n\n    // Function to verify registration using address\n    function verifyRegistration(address _user) public {\n        // Check if registration exists in unverified registrations\n        require(\n            bytes(unverifiedRegistrations.get(_user).name).length > 0,\n            \"Registration does not exist or already verified/rejected\"\n        );\n\n        // Move registration from unverified to verified\n        verifiedRegistrations.set(_user, unverifiedRegistrations.get(_user));\n        unverifiedRegistrations.remove(_user);\n        emit RegistrationStatusChanged(_user, \"verified\");\n    }\n\n    // Function to reject registration using address\n    function rejectRegistration(address _user) public {\n        // Check if registration exists in unverified registrations\n        require(\n            bytes(unverifiedRegistrations.get(_user).name).length > 0,\n            \"Registration does not exist or already verified/rejected\"\n        );\n\n        // Move registration from unverified to rejected\n        rejectedRegistrations.set(_user, unverifiedRegistrations.get(_user));\n        unverifiedRegistrations.remove(_user);\n        emit RegistrationStatusChanged(_user, \"rejected\");\n    }\n}\n",
  "sourcePath": "/home/srdevanarayan/Desktop/Final Project/Final_Backend/contracts/MasterList.sol",
  "compiler": {
    "name": "solc",
    "version": "0.8.17+commit.8df45f5f.Emscripten.clang"
  },
  "schemaVersion": "3.4.16",
  "updatedAt": "2024-04-22T07:53:11.575Z",
  "devdoc": {
    "kind": "dev",
    "methods": {},
    "version": 1
  },
  "userdoc": {
    "kind": "user",
    "methods": {},
    "version": 1
  }
}