{
  "contractName": "UserInfo",
  "abi": [
    {
      "inputs": [
        {
          "internalType": "string",
          "name": "_username",
          "type": "string"
        },
        {
          "internalType": "string",
          "name": "_encryptedPrivateKey",
          "type": "string"
        },
        {
          "internalType": "string",
          "name": "_encryptedCPABESecretKey",
          "type": "string"
        }
      ],
      "name": "setUserData",
      "outputs": [],
      "stateMutability": "nonpayable",
      "type": "function"
    },
    {
      "inputs": [
        {
          "internalType": "string",
          "name": "_username",
          "type": "string"
        }
      ],
      "name": "getUserData",
      "outputs": [
        {
          "internalType": "string",
          "name": "",
          "type": "string"
        },
        {
          "internalType": "string",
          "name": "",
          "type": "string"
        },
        {
          "internalType": "string",
          "name": "",
          "type": "string"
        }
      ],
      "stateMutability": "view",
      "type": "function"
    },
    {
      "inputs": [
        {
          "internalType": "string",
          "name": "_username",
          "type": "string"
        },
        {
          "internalType": "string",
          "name": "_status",
          "type": "string"
        }
      ],
      "name": "updateUserStatus",
      "outputs": [],
      "stateMutability": "nonpayable",
      "type": "function"
    }
  ],
  "bytecode": "0x608060405234801561001057600080fd5b506108e7806100206000396000f3fe608060405234801561001057600080fd5b50600436106100415760003560e01c806354ab240314610046578063e2a804e114610071578063feb597bc14610086575b600080fd5b610059610054366004610599565b610099565b60405161006893929190610626565b60405180910390f35b61008461007f366004610669565b61029a565b005b6100846100943660046106cd565b610345565b6060806060600080856040516100af9190610755565b90815260200160405180910390206040518060600160405290816000820180546100d890610771565b80601f016020809104026020016040519081016040528092919081815260200182805461010490610771565b80156101515780601f1061012657610100808354040283529160200191610151565b820191906000526020600020905b81548152906001019060200180831161013457829003601f168201915b5050505050815260200160018201805461016a90610771565b80601f016020809104026020016040519081016040528092919081815260200182805461019690610771565b80156101e35780601f106101b8576101008083540402835291602001916101e3565b820191906000526020600020905b8154815290600101906020018083116101c657829003601f168201915b505050505081526020016002820180546101fc90610771565b80601f016020809104026020016040519081016040528092919081815260200182805461022890610771565b80156102755780601f1061024a57610100808354040283529160200191610275565b820191906000526020600020905b81548152906001019060200180831161025857829003601f168201915b5050509190925250508151602083015160409093015190989297509550909350505050565b6000826040516102aa9190610755565b908152602001604051809103902060020180546102c690610771565b90506000036103125760405162461bcd60e51b8152602060048201526013602482015272155cd95c88191bd95cc81b9bdd08195e1a5cdd606a1b60448201526064015b60405180910390fd5b806000836040516103239190610755565b9081526020016040518091039020600201908161034091906107f1565b505050565b60008351116103965760405162461bcd60e51b815260206004820152601860248201527f557365726e616d652063616e6e6f7420626520656d70747900000000000000006044820152606401610309565b60008251116103f55760405162461bcd60e51b815260206004820152602560248201527f456e637279707465642070726976617465206b65792063616e6e6f7420626520604482015264656d70747960d81b6064820152608401610309565b600081511161045a5760405162461bcd60e51b815260206004820152602b60248201527f456e637279707465642043502d41424520736563726574206b65792063616e6e60448201526a6f7420626520656d70747960a81b6064820152608401610309565b60405180606001604052808381526020018281526020016040518060400160405280600a8152602001691d5b9d995c9a599a595960b21b8152508152506000846040516104a79190610755565b908152604051908190036020019020815181906104c490826107f1565b50602082015160018201906104d990826107f1565b50604082015160028201906104ee90826107f1565b505050505050565b634e487b7160e01b600052604160045260246000fd5b600082601f83011261051d57600080fd5b813567ffffffffffffffff80821115610538576105386104f6565b604051601f8301601f19908116603f01168101908282118183101715610560576105606104f6565b8160405283815286602085880101111561057957600080fd5b836020870160208301376000602085830101528094505050505092915050565b6000602082840312156105ab57600080fd5b813567ffffffffffffffff8111156105c257600080fd5b6105ce8482850161050c565b949350505050565b60005b838110156105f15781810151838201526020016105d9565b50506000910152565b600081518084526106128160208601602086016105d6565b601f01601f19169290920160200192915050565b60608152600061063960608301866105fa565b828103602084015261064b81866105fa565b9050828103604084015261065f81856105fa565b9695505050505050565b6000806040838503121561067c57600080fd5b823567ffffffffffffffff8082111561069457600080fd5b6106a08683870161050c565b935060208501359150808211156106b657600080fd5b506106c38582860161050c565b9150509250929050565b6000806000606084860312156106e257600080fd5b833567ffffffffffffffff808211156106fa57600080fd5b6107068783880161050c565b9450602086013591508082111561071c57600080fd5b6107288783880161050c565b9350604086013591508082111561073e57600080fd5b5061074b8682870161050c565b9150509250925092565b600082516107678184602087016105d6565b9190910192915050565b600181811c9082168061078557607f821691505b6020821081036107a557634e487b7160e01b600052602260045260246000fd5b50919050565b601f82111561034057600081815260208120601f850160051c810160208610156107d25750805b601f850160051c820191505b818110156104ee578281556001016107de565b815167ffffffffffffffff81111561080b5761080b6104f6565b61081f816108198454610771565b846107ab565b602080601f831160018114610854576000841561083c5750858301515b600019600386901b1c1916600185901b1785556104ee565b600085815260208120601f198616915b8281101561088357888601518255948401946001909101908401610864565b50858210156108a15787850151600019600388901b60f8161c191681555b5050505050600190811b0190555056fea2646970667358221220aa38d60e68dec2124088732eb367d27345e580a815da4f2b0fec025845d95ccd64736f6c63430008110033",
  "immutableReferences": {},
  "source": "// SPDX-License-Identifier: MIT\npragma solidity 0.8.17;\n\ncontract UserInfo {\n    struct UserData {\n        string encryptedPrivateKey; // Encrypted private key\n        string encryptedCPABESecretKey; // Encrypted CP-ABE secret key\n        string status; // Status associated with the user\n    }\n\n    mapping(string => UserData) private userInfo; // Maps username to user data\n\n    // Function to set user data\n    function setUserData(\n        string memory _username,\n        string memory _encryptedPrivateKey,\n        string memory _encryptedCPABESecretKey\n    ) public {\n        require(bytes(_username).length > 0, \"Username cannot be empty\");\n        require(bytes(_encryptedPrivateKey).length > 0, \"Encrypted private key cannot be empty\");\n        require(bytes(_encryptedCPABESecretKey).length > 0, \"Encrypted CP-ABE secret key cannot be empty\");\n\n        userInfo[_username] = UserData({\n            encryptedPrivateKey: _encryptedPrivateKey,\n            encryptedCPABESecretKey: _encryptedCPABESecretKey,\n            status: \"unverified\"\n        });\n    }\n\n    // Function to get user data\n    function getUserData(string memory _username)\n        public\n        view\n        returns (\n            string memory,\n            string memory,\n            string memory\n        )\n    {\n        UserData memory data = userInfo[_username];\n        return (data.encryptedPrivateKey, data.encryptedCPABESecretKey, data.status);\n    }\n\n    // Function to update user status\n    function updateUserStatus(string memory _username, string memory _status) public {\n        require(bytes(userInfo[_username].status).length != 0, \"User does not exist\");\n        userInfo[_username].status = _status;\n    }\n}\n",
  "sourcePath": "/home/srdevanarayan/Desktop/Final Project/Final_Backend/contracts/UserInfo.sol",
  "compiler": {
    "name": "solc",
    "version": "0.8.17+commit.8df45f5f.Emscripten.clang"
  },
  "schemaVersion": "3.4.16",
  "updatedAt": "2024-04-22T08:27:36.050Z",
  "devdoc": {
    "kind": "dev",
    "methods": {},
    "version": 1
  },
  "userdoc": {
    "kind": "user",
    "methods": {},
    "version": 1
  }
}